:020000040800F2
:10000000080400209D010008F3010008EB0100082E
:10001000EF010008E5010008990200080000000057
:10002000000000000000000000000000F7010008D0
:10003000E901000800000000F5010008F9010008CE
:10004000B7010008B7010008B7010008B7010008B0
:10005000B7010008B7010008B7010008B7010008A0
:10006000B7010008B7010008B7010008B701000890
:10007000B7010008B7010008B7010008B701000880
:10008000B7010008B7010008B7010008B701000870
:10009000B7010008B7010008B7010008B701000860
:1000A000B7010008B7010008B7010008B701000850
:1000B000B7010008B7010008B7010008B701000840
:1000C000B7010008B7010008B7010008B701000830
:1000D000B7010008B7010008B70100086D02000869
:1000E000B7010008B7010008B7010008B701000810
:1000F000B7010008B7010008B7010008B701000800
:10010000B7010008B7010008B7010008B7010008EF
:10011000B7010008B7010008B7010008B7010008DF
:10012000B7010008B7010008B7010008B7010008CF
:10013000B7010008B7010008B7010008B7010008BF
:1001400000000000000000000000000000000000AF
:10015000B7010008B7010008B7010008B70100089F
:10016000B7010008B7010008B7010008B70100088F
:10017000B7010008B7010008B7010008B70100087F
:10018000B7010008DFF810D000F01AF80048004767
:1001900011080008AFF300800804002006488047DB
:1001A00006480047FEE7FEE7FEE7FEE7FEE7FEE75C
:1001B000FEE7FEE7FEE7FEE7FD0100088501000817
:1001C000064C074D06E0E06840F0010394E80700A4
:1001D00098471034AC42F6D3FFF7D8FFD40B000891
:1001E000F40B000800BFFEE7704700BFFEE700BF4A
:1001F000FEE7704770477047704700001848006876
:1002000040F47000164908601648006820F00100AC
:10021000401C1449086000BF12480068C0F3400049
:100220000028F9D00F48406820F003000D494860CD
:1002300000BF0C484068C0F381000028F9D109488C
:1002400000680949084007490860002048600863C1
:100250004FF41F008860C803014980390860704767
:1002600088ED00E000100240FFFFF2FE10B52021F3
:10027000084800F021FC01280BD12021054800F09E
:1002800012FC044800F002FC04462146014800F03C
:1002900001FC10BD0048004000BFFEE7014A0249D2
:1002A00000F013B82D0700080400002002E008C881
:1002B000121F08C1002AFAD170477047002001E0E0
:1002C00001C1121F002AFBD170472DE9F0411646EB
:1002D0000F460446002503E03946B047641C6D1CF8
:1002E00020780028F8D12846BDE8F0811CB5002010
:1002F0000090019001210E4800F082F908208DF84D
:10030000060000208DF8040004208DF8050001206F
:100310008DF80700C00200906946064800F024FAF4
:100320004FF4806000906946024800F01DFA1CBD41
:1003300003001800000C014010B5FFF7D7FF00F0D4
:1003400023F801210D4800F05BF900231A464FF411
:10035000E1310B4800F0B8FB0121094800F018FC1E
:100360000121074800F00FFC0121054800F096FB31
:1003700001220449024800F0EBFB10BD12001C00F2
:100380000048004005000C0010B5042000F0B6FA4B
:1003900000221146272000F04DFA10BD034949689C
:1003A00060F30711014A51607047000000100240DD
:1003B0000349496860F30A21014A5160704700000F
:1003C000001002400349496860F3CD21014A5160A1
:1003D0007047000000100240012807D10749496D0D
:1003E00021F030013031054A516505E00349496D7E
:1003F00021F03001014A51657047000000100240B1
:10040000052827D2DFE800F0030A11181F00134A5D
:10041000126861F30002114B1A601CE00F4A126867
:1004200061F310420D4B1A6015E00C4A126861F33B
:1004300018620A4B1A600EE0084A126A61F3000261
:10044000064B1A6207E0054A526A61F30002034B49
:100450005A6200E000BF00BF704700000010024079
:100460002DE9F04101460027002200259046002397
:10047000002400F053F9064626B1012E12D0022EB8
:1004800043D112E03948406DC0F3402038B13748BD
:10049000006BC0F3406010B13548086001E035489A
:1004A000086035E03348086032E030484068C0F307
:1004B00000482E484068C0F383422C484068C0F38F
:1004C00041750DB90F2A03D12801401C024400E0F8
:1004D000921CB8F1000F03D127485043086013E085
:1004E00022484068C0F3404058B12048406DC0F3F6
:1004F0000137B81CDFF87CC0BCFBF0F0504308604B
:1005000002E01C485043086002E01A48086000BF3F
:1005100000BF16484068C0F303131848C45C08685D
:10052000E040486011484068C0F302231448C45CAE
:100530004868E040C8600D484068C0F3C2231148D5
:10054000C45C4868E040886008484068C0F30073B5
:1005500006484068C0F3813040EA83030A48C45C1F
:100560008868B0FBF4F00861BDE8F081001002403B
:10057000006CDC0200127A0000093D00AA0B0008A2
:10058000BA0B0008C20B0008CA0B000810B50146E0
:100590000020094B03EB1142126801F01F040123F4
:1005A000A3401A4001F01F040123A3409A4200D047
:1005B00000E0012010BD0000001002400349496D19
:1005C00060F30D31014A5165704700000010024090
:1005D00030B50024002500E0641C1120FFF7D6FF91
:1005E000012802D0B4F5405FF6D31120FFF7CEFF0B
:1005F000012801D0002500E00125284630BD00007B
:1006000010B501290DD10E4B03EB1042126800F01A
:100610001F040123A3401A43094C04EB10431A6042
:100620000CE0074B03EB1042126800F01F0401239B
:10063000A3409A43024C04EB10431A6010BD000023
:100640000010024010B530B9184B5B6823F48033BA
:10065000164C636017E0154B5B6823F4803303F599
:100660008033124C6360012805D123465B6823F474
:100670000033636007E00D4B5B6823F4003303F540
:1006800000330A4C6360094B5B6861F39543074C88
:1006900063600C09054B5B6864F35E73034C636035
:1006A00023465B6862F3DF73636010BD0010024095
:1006B0001348006820F00100401C1149086000BF89
:1006C0000F480068C0F340000028F9D00C4840688B
:1006D00020F003000A49486000BF09484068C0F3A1
:1006E00081000028F9D106480068064908400449FD
:1006F00008600020486008634FF41F00886070475E
:1007000000100240FFFFF2FE0349496860F3010157
:10071000014A5160704700000010024002484068E2
:10072000C0F38100704700000010024038B5044655
:100730000D464FF480500090A1B20A4800F0AAF98B
:1007400004E0BDF80000401E80B200904021054842
:1007500000F0B2F918B9BDF800000028F1D1204628
:1007600038BD000000480040F0B50A461588ABB21D
:100770009579032D01D100241AE0957965B9557951
:1007800005F00F045579182D01D1036110E055795A
:10079000282D0DD143610BE0957905F008051679F8
:1007A00006F004063543D67906F0030645EA06044A
:1007B000DDB2A5B1002110E001258D401D405DB1E5
:1007C00005688F000F26BE40B543056005688E00A2
:1007D00004FA06F635430560491C0829ECD3FF2BC3
:1007E00015DD1B12002110E001258D401D405DB17B
:1007F00045688F000F26BE40B543456045688E00B2
:1008000004FA06F635434560491C0829ECD3F0BDCF
:1008100000F088F8FFF790FD02A0FFF73FFD00BF52
:10082000FEE7000068656C6C6F20776F726C640A7D
:10083000000000002DE9F0470B4614464FF0000C75
:1008400000BF2C4A1268C2F302211D4626460A4602
:10085000C2F10709B9F1040F02D94FF0040901E010
:10086000C2F10709C84602F10409B9F1070F02D223
:100870004FF0000901E0A2F103094F464FF00109D2
:1008800009FA08F9A9F1010909EA050909FA07F9BC
:100890004FF0010A0AFA07FAAAF1010A0AEA060A5F
:1008A00049EA0A09CC4601466246002904DB1507DD
:1008B0002E0E114D6E5407E015072F0E0D4D0C3501
:1008C00001F00F06361FAF5500BF014600290DDBB2
:1008D00000BF00BF01F01F050122AA404D09AD0075
:1008E00005F1E025C5F8002100BF00BF00BFBDE84D
:1008F000F08700000CED00E000E400E000BF00F035
:100900000702064B19684FF6FF031940044B0B43CF
:1009100043EA0221014B196000BF70470CED00E073
:100920000000FA0510B5FFF7C3FE01210846FFF7E6
:1009300067FD00BFFFF74CFE0028FBD001223B21E2
:100940000220FFF77FFE0020FFF738FE0121022082
:10095000FFF756FD00BF1920FFF718FE0128FAD156
:100960000020FFF71BFD0420FFF72CFD0420FFF7FC
:100970001FFD0120FFF730FD0220FFF7C5FE00BF7D
:10098000FFF7CCFE0228FBD10020FFF725FD00F089
:1009900001F810BD2DE9F0470026002400250027AE
:1009A000A046A146FFF7BAFE8246BAF1000F06D074
:1009B000BAF1010F15D0BAF1020F46D115E02D485A
:1009C000406DC0F3402040B12A48006BC0F3406046
:1009D00018B129482949086002E0294827490860D8
:1009E00037E027482549086033E022484068C0F3D3
:1009F000004720484068C0F383441E484068C0F365
:100A000041750DB90F2C03D12801401C044400E0AE
:100A1000A41C27B91B4860431849086014E0154816
:100A20004068C0F3404058B11248406DC0F30136F1
:100A3000B01C1349B1FBF0F060431049086003E0BB
:100A40000F4860430D49086003E00D480B490860FA
:100A500000BF00BF07484068C0F303180A4810F8F9
:100A600008900648006820FA09F004490860BDE8CB
:100A7000F087000000100240006CDC020000002043
:100A800000127A0000093D009A0B000801464868F0
:100A900080B27047C1F3080242607047C26861F3D8
:100AA0004D32C260704701F01F0212B10268426805
:100AB00001E0CA430260704702461068084008B16E
:100AC000012070470020FCE72DE9F04385B0044683
:100AD0000F46904699466846FFF7C2FC1848844284
:100AE00008D01848844205D01748844202D01748DD
:100AF000844201D1029E00E0039E06EB8600400086
:100B0000B0FBF7F50A20B5FBF0F100FB115005280A
:100B100003D20A20B5FBF0F503E00A20B5FBF0F0A4
:100B2000451CA06865F30F00A060E06868F30C3016
:100B3000E060206969F30D30206105B0BDE8F08305
:100B4000003801400060014000640140006801403D
:100B500030B5012A0BD100EB11431B6801F01F05D2
:100B60000124AC40234300EB114423600AE000EB76
:100B700011431B6801F01F050124AC40A34300EBA7
:100B80001144236030BDC26861F38202C2607047C5
:100B9000C26861F3C302C260704700000000000039
:100BA000000001020304060708090000000000001D
:100BB000000001020304060708090000000001020A
:100BC0000304000000000102030402040608020CF2
:100BD00008100000F40B00080000002008000000CE
:100BE000AC020008FC0B0008080000200004000014
:0C0BF000BC02000800127A0000000000A7
:040000050800018569
:00000001FF
