:020000040800F2
:1000000008040020990100089102000889020008F4
:100010008D0200088302000835030008000000007C
:100020000000000000000000000000009502000831
:1000300087020008000000009302000897020008F1
:10004000B3010008B3010008B3010008B3010008C0
:10005000B3010008B3010008B3010008B3010008B0
:10006000B3010008B3010008B3010008B3010008A0
:10007000B3010008B3010008B3010008B301000890
:10008000B3010008B3010008B3010008B301000880
:10009000B3010008B3010008B3010008B301000870
:1000A000B3010008B3010008B3010008B301000860
:1000B000B3010008B3010008B3010008B301000850
:1000C000B3010008B3010008B3010008B301000840
:1000D000B3010008B3010008B301000809030008D8
:1000E000B3010008B3010008B3010008B301000820
:1000F000B3010008B3010008B3010008B301000810
:10010000B3010008B3010008B3010008B3010008FF
:10011000B3010008B3010008B3010008B3010008EF
:10012000B3010008B3010008B3010008B3010008DF
:10013000B3010008B3010008B3010008B3010008CF
:1001400000000000000000000000000000000000AF
:10015000B3010008B3010008B3010008B3010008AF
:10016000B3010008B3010008B3010008B30100089F
:10017000B3010008B3010008B3010008B30100088F
:10018000B3010008DFF80CD000F04AF8004800473F
:10019000810C0008080400200648804706480047F4
:1001A000FEE7FEE7FEE7FEE7FEE7FEE7FEE7FEE727
:1001B000FEE7FEE799020008850100082DE9F05FDF
:1001C0000546002092469B468846064681464024C6
:1001D0001BE0284641464746224600F042F8534677
:1001E0005A46C01A914110D311461846224600F0D3
:1001F00029F82D1A67EB01084F46224601200021FD
:1002000000F020F817EB00094E41201EA4F1010474
:10021000DFDC484631462A464346BDE8F09F0000F1
:10022000064C074D06E0E06840F0010394E8070043
:1002300098471034AC42F6D3FFF7A8FFF814000833
:1002400018150008202A04DB203A00FA02F10020E9
:1002500070479140C2F1200320FA03F31943904004
:100260007047202A04DB203A21FA02F0002170476F
:1002700021FA02F3D040C2F120029140084319460E
:10028000704700BFFEE7704700BFFEE700BFFEE714
:1002900070477047704770471848006840F4700016
:1002A000164908601648006820F00100401C1449F7
:1002B000086000BF12480068C0F340000028F9D071
:1002C0000F48406820F003000D49486000BF0C480B
:1002D0004068C0F381000028F9D109480068094945
:1002E0000840074908600020486008634FF41F0079
:1002F0008860C803014980390860704788ED00E0D4
:1003000000100240FFFFF2FE10B52021084800F067
:10031000F3FE01280BD12021054800F0E4FE04483B
:1003200000F0D4FE04462146014800F0D3FE10BD83
:100330000048004000BFFEE70FB4054B10B503A90D
:10034000044A029800F018F810BC5DF814FB000095
:10035000950B00080400002002E008C8121F08C125
:10036000002AFAD170477047002001E001C1121F36
:10037000002AFBD1704700002DE9FF4F8DB09B464E
:100380000F460446002606E025280BD05A460F9952
:100390009047641C761C20780028F5D111B03046B7
:1003A000BDE8F08F0025A8460122984900E00543EA
:1003B00014F8013F203B02FA03F00842F7D12078FD
:1003C0002E2817D114F8010F45F004052A280ED065
:1003D0006FF02F022078A0F1300109290AD808EB2C
:1003E000880102EB410100EB0108641CF2E757F8B9
:1003F000048B641C20786C280DD004DC4C2812D0AF
:100400006A2811D104E074280DD07A280CD10AE0B2
:1004100045F4001507E0617845F48015814202D16A
:10042000641C05F58015641C2278692A45D008DC17
:10043000002AB3D0582A69D0632A10D0642A08D180
:100440003BE0702A67D0732A13D0752A5CD0782AD3
:100450005CD010465A460F999047761CD3E017F8A7
:10046000040B8DF8000000208DF80100E946012002
:1004700003E057F8049B4FF0FF3069074FF0000589
:1004800001D40AE06D1C45450DDA8542FADB19F806
:1004900005100029F6D106E06D1C8542FCDB19F839
:1004A00005100029F8D12E4404E019F8010B5A4632
:1004B0000F9990476D1EF8D2A5E00A200021CDE9E2
:1004C0000801C5F3025002280DD001CFC117031E49
:1004D00071F100030DDA4FF0000CD0EB0C006CEB67
:1004E00001012D2308E0FF1D27F00707F7E80201AF
:1004F000EDE72B0504D52B238DF8283001233BE0B5
:10050000EB0739D02023F7E70A2000E01020002174
:10051000CDE9080107E01020002145F00405CDE9F0
:1005200008014FF00808C5F3025002280FD001CF90
:1005300000214FF0000A2B071FD5702A0DD0DDE9EE
:1005400008C38CF0100C5CEA030C0CD015E0FF1D06
:1005500027F00707F7E80201EBE740228DF8282093
:100560004FF0010A0BE050EA010306D030238DF86A
:1005700028308DF8292002239A46582A04D024A234
:100580000DF120090B9209E026A2F9E7DDE9082325
:10059000FFF714FE0B9B9B5C09F8013D50EA01023A
:1005A000F4D1ADEB090020300890680701D44FF07A
:1005B00001080899884502DDA8EB010000E0002051
:1005C0008046002506E00AA85A46405D0F999047EC
:1005D0006D1C761C5545F6DB04E030205A460F9919
:1005E0009047761CB8F10001A8F10108F5DC05E0A0
:1005F00019F8010B5A460F999047761C0899481E26
:1006000008900029F4DC641CC5E6000009280100FC
:100610003031323334353637383961626364656678
:10062000000000003031323334353637383941423A
:1006300043444546000000001CB500200090019096
:1006400001211B4800F010FA10208DF80600002050
:100650008DF8040018208DF8050001208DF80700A2
:10066000000300906946134800F0B6FA08208DF8A0
:1006700006008002009069460E4800F0ADFA08209E
:100680008DF80600C002009069460A4800F0A4FAFE
:1006900008208DF80600000300906946054800F028
:1006A0009BFA4FF48051034800F094FA1CBD0000FF
:1006B00003001800000C01401CB5FFF7BDFF01212D
:1006C000114800F0D1F9684600F09CFB01208DF83C
:1006D00007008DF8010000208DF8000001208DF842
:1006E00006008DF8050000208DF803008DF8040049
:1006F00002208DF802006946044800F0A1FB0121A8
:10070000024800F08AFB1CBD0E001C0000380040AF
:1007100010B5FF2000F002F810BD000070B50446CF
:1007200021460B4800F082FB00BF0121084800F081
:100730007FFB0028F9D0064800F074FBC5B200BF6B
:100740008021034800F074FB0028F9D1284670BDD1
:10075000003800401CB500200090019001210E4897
:1007600000F082F908208DF8060000208DF80400C2
:1007700004208DF8050001208DF80700C0020090CC
:100780006946064800F028FA4FF4806000906946F8
:10079000024800F021FA1CBD03001800000C0140C3
:1007A00010B5FFF7D7FF00F023F801210D4800F046
:1007B0005BF900231A464FF4E1310B4800F0A4FC2A
:1007C0000121094800F004FD0121074800F0FBFC6D
:1007D0000121054800F082FC01220449024800F092
:1007E000D7FC10BD12001C000048004005000C00A2
:1007F00010B5042000F0F2FA00221146272000F084
:1008000089FA10BD0349496860F30711014A516034
:1008100070470000001002400349496860F30A2154
:10082000014A5160704700000010024003494968C6
:1008300060F3CD21014A5160704700000010024072
:10084000012807D10749496D21F030013031054AAF
:10085000516505E00349496D21F03001014A5165B8
:100860007047000000100240052827D2DFE800F0A2
:10087000030A11181F00134A126861F30002114B9A
:100880001A601CE00F4A126861F310420D4B1A60A7
:1008900015E00C4A126861F318620A4B1A600EE008
:1008A000084A126A61F30002064B1A6207E0054A21
:1008B000526A61F30002034B5A6200E000BF00BFBE
:1008C00070470000001002402DE9F041014600276A
:1008D0000022002590460023002400F053F906462C
:1008E00026B1012E12D0022E43D112E03948406DBC
:1008F000C0F3402038B13748006BC0F3406010B1FE
:100900003548086001E03548086035E03348086044
:1009100032E030484068C0F300482E484068C0F3D9
:1009200083422C484068C0F341750DB90F2A03D1AA
:100930002801401C024400E0921CB8F1000F03D1D2
:1009400027485043086013E022484068C0F3404005
:1009500058B12048406DC0F30137B81CDFF87CC0A7
:10096000BCFBF0F05043086002E01C4850430860B4
:1009700002E01A48086000BF00BF16484068C0F394
:1009800003131848C45C0868E04048601148406898
:10099000C0F302231448C45C4868E040C8600D48B6
:1009A0004068C0F3C2231148C45C4868E0408860D6
:1009B00008484068C0F3007306484068C0F38130BF
:1009C00040EA83030A48C45C8868B0FBF4F008611D
:1009D000BDE8F08100100240006CDC0200127A00D9
:1009E00000093D00D0140008E0140008E8140008D5
:1009F000F014000810B501460020094B03EB11422A
:100A0000126801F01F040123A3401A4001F01F04E3
:100A10000123A3409A4200D000E0012010BD000055
:100A2000001002400349496D60F30D31014A5165E0
:100A3000704700000010024030B50024002500E09F
:100A4000641C1120FFF7D6FF012802D0B4F5405FE7
:100A5000F6D31120FFF7CEFF012801D0002500E0DA
:100A60000125284630BD000010B501290DD10E4BDF
:100A700003EB1042126800F01F040123A3401A4345
:100A8000094C04EB10431A600CE0074B03EB1042D7
:100A9000126800F01F040123A3409A43024C04EBA8
:100AA00010431A6010BD00000010024010B530B9AC
:100AB000184B5B6823F48033164C636017E0154BCA
:100AC0005B6823F4803303F58033124C63600128A4
:100AD00005D123465B6823F40033636007E00D4BC8
:100AE0005B6823F4003303F500330A4C6360094B61
:100AF0005B6861F39543074C63600C09054B5B68C9
:100B000064F35E73034C636023465B6862F3DF73D8
:100B1000636010BD001002401348006820F001001F
:100B2000401C1149086000BF0F480068C0F3400036
:100B30000028F9D00C48406820F003000A494860BA
:100B400000BF09484068C0F381000028F9D1064879
:100B500000680649084004490860002048600863AE
:100B60004FF41F008860704700100240FFFFF2FE44
:100B70000349496860F30101014A51607047000070
:100B80000010024002484068C0F381007047000036
:100B90000010024038B504460D464FF480500090D6
:100BA000A1B20A4800F096FA04E0BDF80000401E29
:100BB00080B200904021054800F09EFA18B9BDF8B7
:100BC00000000028F1D1204638BD00000048004058
:100BD0004161704701617047F0B50A461588ABB2B4
:100BE0009579032D01D100241AE0957965B95579DD
:100BF00005F00F045579182D01D1036110E05579E6
:100C0000282D0DD143610BE0957905F00805167983
:100C100006F004063543D67906F0030645EA0604D5
:100C2000DDB2A5B1002110E001258D401D405DB170
:100C300005688F000F26BE40B543056005688E002D
:100C400004FA06F635430560491C0829ECD3FF2B4E
:100C500015DD1B12002110E001258D401D405DB106
:100C600045688F000F26BE40B543456045688E003D
:100C700004FA06F635434560491C0829ECD3F0BD5B
:100C800090B0002413A207CA0DAB07C300F06AF9A5
:100C9000FFF786FDFFF710FD11A0FFF74DFB00F0F9
:100CA0006FFB0446214612A0FFF746FB002000F030
:100CB000B9FB082200210DA800F08FFA08220021BC
:100CC000684600F087FB69460EA0FFF735FB00BFC2
:100CD000FEE7000068656A696168756900000000E8
:100CE00068656C6C6F20776F726C640A000000009E
:100CF000666C6173685F6964203D20307825780AEE
:100D0000000000006275666672656164203D202502
:100D1000730A00002DE9F0470B4614464FF0000C13
:100D200000BF2C4A1268C2F302211D4626460A461D
:100D3000C2F10709B9F1040F02D94FF0040901E02B
:100D4000C2F10709C84602F10409B9F1070F02D23E
:100D50004FF0000901E0A2F103094F464FF00109ED
:100D600009FA08F9A9F1010909EA050909FA07F9D7
:100D70004FF0010A0AFA07FAAAF1010A0AEA060A7A
:100D800049EA0A09CC4601466246002904DB1507F8
:100D90002E0E114D6E5407E015072F0E0D4D0C351C
:100DA00001F00F06361FAF5500BF014600290DDBCD
:100DB00000BF00BF01F01F050122AA404D09AD0090
:100DC00005F1E025C5F8002100BF00BF00BFBDE868
:100DD000F08700000CED00E000E400E000BF00F050
:100DE0000702064B19684FF6FF031940044B0B43EB
:100DF00043EA0221014B196000BF70470CED00E08F
:100E00000000FA050021017041708170C17001710C
:100E1000417181710121C1717047026861F38612CD
:100E2000026070470146C86880B27047C160704771
:100E30000246002093680B4003B900E00120704790
:100E4000C26922F40062C2610A7862B9026822F4BF
:100E500000420260026822F480420260026822F4CA
:100E60008062026036E00A78012A0ED1026822F41C
:100E700000420260026822F480420260026822F4AA
:100E8000806202F58062026024E00A78022A0ED1B4
:100E9000026822F4004202F500420260026822F475
:100EA00080420260026822F48062026012E00A78E6
:100EB000032A0FD1026822F4004202F500420260C8
:100EC000026822F4804202F580420260026822F445
:100ED00080620260CB79026863F3492202604A783B
:100EE000012A09D1CA79012A06D1026822F4807246
:100EF00002F58072026003E0026822F480720260F0
:100F00004B78026863F3820202608A78072A0BDD5D
:100F1000426822F4807202F5807242608A78036827
:100F200062F3C503036008E0426822F48072426005
:100F30008B78026863F3C5020260CB78026863F3C2
:100F4000C71202600B79026863F3CB2202604B790F
:100F5000026863F3410202608B79026863F3000266
:100F60000260704710B5FFF7D7FD01210846FFF773
:100F70007BFC00BFFFF760FD0028FBD001223B2176
:100F80000220FFF793FD0020FFF74CFD0121022016
:100F9000FFF76AFC00BF1920FFF72CFD0128FAD1EA
:100FA0000020FFF72FFC0420FFF740FC0420FFF790
:100FB00033FC0120FFF744FC0220FFF7D9FD00BFFE
:100FC000FFF7E0FD0228FBD10020FFF739FC00F01D
:100FD00001F810BD2DE9F047002600240025002768
:100FE000A046A146FFF7CEFD8246BAF1000F06D01B
:100FF000BAF1010F15D0BAF1020F46D115E02D4814
:10100000406DC0F3402040B12A48006BC0F34060FF
:1010100018B129482949086002E029482749086091
:1010200037E027482549086033E022484068C0F38C
:10103000004720484068C0F383441E484068C0F31E
:1010400041750DB90F2C03D12801401C044400E068
:10105000A41C27B91B4860431849086014E01548D0
:101060004068C0F3404058B11248406DC0F30136AB
:10107000B01C1349B1FBF0F060431049086003E075
:101080000F4860430D49086003E00D480B490860B4
:1010900000BF00BF07484068C0F303180A4810F8B3
:1010A00008900648006820FA09F004490860BDE885
:1010B000F087000000100240006CDC0200000020FD
:1010C00000127A0000093D00C0140008014648687B
:1010D00080B27047C1F3080242607047C26861F392
:1010E0004D32C260704701F01F0212B102684268BF
:1010F00001E0CA430260704702461068084008B128
:10110000012070470020FCE72DE9F04385B004463C
:101110000F46904699466846FFF7D6FB184884422A
:1011200008D01848844205D01748844202D0174896
:10113000844201D1029E00E0039E06EB860040003F
:10114000B0FBF7F50A20B5FBF0F100FB11500528C4
:1011500003D20A20B5FBF0F503E00A20B5FBF0F05E
:10116000451CA06865F30F00A060E06868F30C30D0
:10117000E060206969F30D30206105B0BDE8F083BF
:1011800000380140006001400064014000680140F7
:1011900030B5012A0BD100EB11431B6801F01F058C
:1011A0000124AC40234300EB114423600AE000EB30
:1011B00011431B6801F01F050124AC40A34300EB61
:1011C0001144236030BDC26861F38202C26070477F
:1011D000C26861F3C302C26070472DE9F05F074641
:1011E0000E4614464FF0000B00F058F906F0FF09C8
:1011F000C9F10000C5B22046E11704EB1161C1F34B
:101200000728E11704EB11610912A4EB012101F099
:10121000FF0AB9F1000F20D1B8F1000F05D1224625
:101220003146384600F068F863E009E04FF4807218
:101230003146384600F060F807F5807706F580768D
:10124000B8F10000A8F1010101F0FF08EED152460B
:101250003146384600F050F84BE0B8F1000F17D196
:10126000A54205DD22463146384600F045F840E00B
:101270002A463146384600F03FF8601B00F0FF0B6D
:101280002F442E445A463146384600F035F830E0B7
:10129000601B84B22046E11704EB1161C1F30728FB
:1012A000E11704EB11610912A4EB012101F0FF0A1F
:1012B0002A463146384600F01FF82E442F4409E0F4
:1012C0004FF480723146384600F016F807F5807703
:1012D00006F58076B8F10000A8F1010101F0FF08E1
:1012E000EED1BAF1000F04D052463146384600F034
:1012F00003F8BDE8F09F000070B505460C461646A1
:1013000000F0CCF84FF480511448FFF761FC022044
:10131000FFF704FAC4F30740FFF700FAC4F307200D
:10132000FFF7FCF9E0B2FFF7F9F9B6F5807F02DDCF
:101330000BA0FFF701F803E02878FFF7EFF96D1C29
:10134000301EA6F101018EB2F6D14FF48051034850
:10135000FFF740FC00F08AF870BD0000000C01406F
:101360005732355158585F506167655772697465D7
:1013700020697320746F6F206C617267650A0000CA
:101380002DE9F04100240025002700264FF480516C
:101390000F48FFF71DFC9020FFF7C0F9FF20FFF773
:1013A000BDF9FF20FFF7BAF90020FFF7B7F9FFF703
:1013B000AFF9C4B2FFF7ACF9C5B24FF4805104489D
:1013C000FFF708FC45EA04263046BDE8F08100003E
:1013D000000C014070B505460C4616464FF480518E
:1013E0000F48FFF7F5FB0320FFF798F9C4F3074018
:1013F000FFF794F9C4F30720FFF790F9E0B2FFF785
:101400008DF903E0FFF784F928706D1C301EA6F1FA
:101410000106F7D14FF480510148FFF7DBFB70BDA7
:10142000000C014010B5044600F038F800F01EF83A
:101430004FF480510C48FFF7CBFB2020FFF76EF9EB
:10144000C4F30740FFF76AF9C4F30720FFF766F912
:10145000E0B2FFF763F94FF480510348FFF7BAFB9E
:1014600000F004F810BD0000000C014010B54FF46E
:1014700080510948FFF7ACFB0520FFF74FF900BF8B
:10148000FFF746F900F001000028F9D14FF4805130
:101490000148FFF79FFB10BD000C014010B54FF451
:1014A00080510648FFF794FB0620FFF737F94FF409
:1014B00080510248FFF78EFB10BD0000000C014078
:1014C00000000000000000000102030406070809F4
:1014D00000000000000000000102030406070809E4
:1014E00000000000010203040000000001020304E8
:1014F00002040608020C081018150008000000205D
:10150000080000005803000820150008080000200B
:10151000000400006803000800127A0000000000C8
:040000050800018569
:00000001FF
